:020000040800F2
:1000000000000320E5430008593E00085B3E00085D
:100010005D3E00085F3E0008613E000800000000F1
:10002000000000000000000000000000C16D00089A
:10003000633E000800000000616E0008036B0008CA
:1000400035440008354400083544000835440008AC
:10005000354400083544000835440008354400089C
:10006000354400083544000835440008354400088C
:10007000354400083544000835440008354400087C
:10008000354400083544000835440008354400086C
:10009000653E000835440008354400083544000832
:1000A00035440008753E0008354400083544000812
:1000B000354400083544000835440008354400083C
:1000C000354400083544000835440008354400082C
:1000D000354400083544000835440008853E0008D2
:1000E000953E0008354400083544000835440008B2
:1000F00035440008354400083544000835440008FC
:1001000035440008354400083544000835440008EB
:1001100035440008354400083544000835440008DB
:1001200035440008B93E000835440008354400084D
:1001300035440008354400083544000835440008BB
:1001400035440008354400083544000835440008AB
:1001500035440008C93E000835440008D93E00086F
:10016000354400083544000835440008354400088B
:1001700035440008354400083544000800000000FC
:10018000354400083544000835440008E93E0008BD
:10019000354400083544000835440008354400085B
:0C01A000000000000000000035440008D2
:1001B0000348044B834202D0034B03B118477047F6
:1001C0007800002078000020000000000548064963
:1001D0000B1AD90F01EBA301491002D0034B03B155
:1001E00018477047780000207800002000000000C9
:1001F00010B5064C237843B9FFF7DAFF044B13B16F
:100200000448AFF300800123237010BD7800002064
:10021000000000006CB4000808B5044B1BB1044991
:100220000448AFF30080BDE80840CFE700000000BD
:100230007C0000206CB40008254A21F00043934262
:1002400023DD30B5234A934287B009DD02460B46D1
:1002500001F044FE02460B461046194607B030BD79
:1002600002AA00F0DDFA00F00304012C11D0022CE8
:1002700023D0CCB10124DDE90423DDE9020100949F
:1002800001F0E6FA02460B46E6E70022002300F002
:1002900097BDDDE90423DDE90201009401F0D8FAFD
:1002A000024601F10043D7E7DDE90423DDE902015D
:1002B00000F086FD02460B46CEE7DDE90423DDE9CA
:1002C000020100F07DFD024601F10043C4E700BFDA
:1002D000FB21E93FFFFFEF7F30B5224A21F00043C9
:1002E000934287B01CDD204A934205DD02460B464F
:1002F00001F0F4FD07B030BD02AA00F091FA00F061
:100300000300012814D0022822D0C0B1DDE9042363
:10031000DDE9020100F054FD01F1004107B030BDFC
:10032000002400220023009401F092FA07B030BDAF
:10033000DDE90423DDE9020100F042FDDAE70124F2
:10034000DDE90423DDE90201009401F081FAD1E73F
:100350000124DDE90423DDE90201009401F078FACB
:10036000DAE700BFFB21E93FFFFFEF7F00F064B851
:100370002DE9F8431F4680468946164600F024F9C9
:10038000144B93F90030013304460D460DD040461E
:10039000494632463B4602F0F3F930B93046394619
:1003A0000022002302F0BAF918B920462946BDE818
:1003B000F88302F0F5FB00220023212101601046A2
:1003C000194602F06DF804460D4620462946BDE860
:1003D000F88300BF00000020F8B504460D4600F089
:1003E00039FC134B93F90030013306460F460DD00C
:1003F00022462B462046294602F0C2F930B9204653
:1004000029460022002302F093F910B930463946FC
:10041000F8BD02F0C5FB0022002321210160104637
:10042000194602F03DF806460F4630463946F8BDFB
:1004300000000020000000002DE9F84F99465342CB
:100440005F4F134329F0004E4EEAD373BB429046F0
:1004500004460D463DD84642064321F0004A4AEA8A
:10046000D676BE4203468B4633D809F1404606F5A0
:10047000801616433DD04FEAA97606F002065AEAE6
:10048000030346EAD1762CD05EEA020335D0BE459E
:1004900046D0BA4531D0AAEB0E0EBEF1747F4FEABA
:1004A0002E5339DAB9F1000F46DA3C3344DA002032
:1004B0000021012E58D0022E49D086B134A3D3E9B1
:1004C000002301F00BFD34A3D3E9002301F006FD66
:1004D00005E022462B464046494601F001FDBDE8B5
:1004E000F88F022E10D0032EF9D12DA1D1E90001F1
:1004F000F5E7BDE8F84F01F063BABBF1000F07DB89
:1005000029A1D1E90001EAE723A1D1E90001E6E749
:1005100027A1D1E90001E2E723A1D1E90001C8E761
:10052000F24506F1FF3623D0022E29D8254B03EBE6
:10053000C606D6E90601D2E742464B462046294682
:1005400001F0AEFF01F0C2FB01F03AFAB1E710A3EF
:10055000D3E9002301F0C2FC02460B460EA1D1E90B
:10056000000101F0BBFCBAE701F100431946B6E710
:10057000022E08D8134B03EBC606D6E90001AEE7FE
:1005800000200021ABE70CA1D1E90001A7E700BFE3
:10059000075C143326A6A13C182D4454FB210940C6
:1005A000182D4454FB2109C0182D4454FB21F93F58
:1005B000182D4454FB21F9BF182D4454FB21E93F69
:1005C0000000F07F88B400082DE9F84323F0004EC6
:1005D0005EEA02042ED08B4C21F00049A1458846EA
:1005E00028DC5442884E14434EEAD474B442174671
:1005F00020D8F1459C4615460346024601F00044CA
:1006000004DC1DDBB8421BD300F0E7807E4908EA1A
:100610000101B9B9B9F1000F40F0CA80002B1846AA
:1006200040F3EE80A1F213414000002801F1FF31B8
:10063000FADC0BE001F00AFE02460B4601F030FF47
:10064000BDE8F8834FEA2951A1F2FF316E480CEA68
:10065000000068B9BEF1000F40F09E80002F6B4E85
:10066000384609DD4000002806F1FF36FADC03E0D9
:100670004FEA2E56A6F2FF36654881426EDBC8F37C
:10068000130343F480136248864257DBCCF3130C08
:100690004CF4801CD01B891B0BD11DE050EA0E03CB
:1006A00044D04FEADE73013903EB40034FEA4E02B8
:1006B00011D0A3EB0C00954288BF00F1FF30002859
:1006C000A2EB050E4FEAD277E8DA013907EB4303D4
:1006D0004FEA4202EDD1501BA3EB0C0C954288BFB0
:1006E0000CF1FF3CBCF1000FA4BF0246634653EA85
:1006F000020105D11AE0D10F01EB43035200013E84
:10070000B3F5801FF7DB42498E425DDA891B14295D
:1007100069DC06F21E40CA4003FA00F043FA01F118
:100720000C4340EA02032146184689E7394BE40F9F
:1007300003EBC404D4E90001BDE8F883801B1F2843
:100740001EDD3548891BA0EB060C07FA0CFC18BF10
:100750000025AED1A3EB0C0C1046C3E7401A1F28AE
:1007600009DC09FA00F903FA00F201F21E40C34065
:1007700043EA090387E7284A521A9340002282E796
:100780000EFA00FE07FA00F506F21E4027FA00F006
:1007900040EA0E0C501B7EE74FEACE2000281C4E8C
:1007A0007FF76AAF4000002806F1FF36FADC63E706
:1007B0004FEAC920002816497FF748AF40000028BB
:1007C00001F1FF31FADC41E7A3F580131C4306F287
:1007D000FF3644EA0651104632E70E4B03EB147421
:1007E000D4E900012CE71F2906DC06F21E4622FA96
:1007F00001F1B3400B4396E70749891B0B4192E790
:10080000024923E7FFFFEF7F0000F07FEDFBFFFFD2
:1008100002FCFFFFB8B40008E2FBFFFF000000008D
:100820002DE9F04F8C4B2DED048B21F000459D42BE
:100830008BB080468946144640F38680874B9D42A4
:100840000F4628DC00297AA3D3E9002340F3AD81C9
:1008500001F044FB824B9D428046894600F08B802C
:1008600075A3D3E9002301F039FB02460B46C4E926
:1008700000234046494601F031FB6FA3D3E9002332
:1008800001F02CFBC4E90201012630460BB0BDEC9F
:10089000048BBDE8F08F734B9D4240F38E80724B0A
:1008A0009D425EDC2E15A6F21646A5EB0651894642
:1008B00001F07CFF01F060FC02460B4640464946D1
:1008C000CDE9042301F00AFB684B002201F0BEFCD5
:1008D0008946804601F06AFF054601F04DFC02465C
:1008E0000B4640464946CDE9062301F0F7FA5F4B37
:1008F000002201F0ABFC02460B46CDE908230022A2
:10090000002301F00BFF002800F04D81002D0CBFEB
:1009100001230223564A01920222009221463246C6
:1009200004A800F07DFB002F0646AEDA616822685D
:1009300001F10043E168C4E90023A26801F100432A
:10094000C4E902234642A0E70026002200233046E5
:10095000C4E90089C4E902230BB0BDEC048BBDE8F7
:10096000F08F02460B4601F0B9FA0026C4E90201F5
:10097000C4E9000189E732A3D3E9002301F0AEFA0C
:1009800031A3D3E900238046894601F0A7FA024645
:100990000B46C4E900234046494601F09FFA2AA3CA
:1009A000D3E9002301F09AFA0126C4E90201304696
:1009B0000BB0BDEC048BBDE8F08F01F087F924A3E8
:1009C000D3E900238046894601F040FC294B0022F0
:1009D00001F086FA01F0EAFE064601F0CDFB024680
:1009E0000B4643EC182B12A3D3E90023B0EE489A30
:1009F000F0EE689A01F02AFC02460B464046494652
:100A000001F06CFA0CA3D3E9002382468B4651EC2B
:100A1000180B01F01BFC1F2E41EC180B2EDC164BA3
:100A2000721E53F82230AB4228D002460B4699E0A2
:100A300000004054FB21F93F3163621A61B4D03D9C
:100A40000000601A61B4D03D7370032E8A19A33B75
:100A500083C8C96D305FE43FFB21E93F7BD9024089
:100A6000FB21F93FFB213941FFFFEF7F000070417F
:100A700048B500080000E03FC8B400082B150393F8
:100A8000504653EC182B594601F028FAC1F30A538B
:100A9000C3EB1555102D8046894669DD64A3D3E963
:100AA000002351EC190B01F0D1FB804689464246E8
:100AB0004B465046594601F011FA02460B46504645
:100AC000594692469B4601F009FA42464B4601F0D0
:100AD00005FA59A3D3E900238046894651EC190B46
:100AE00001F0B4FB42464B4601F0F8F902460B46D2
:100AF0005046594643EC182B01F0F0F9039AC1F324
:100B00000A53D31A312B8046894631DD4DA3D3E9F0
:100B1000002351EC190B01F099FB804689464246AF
:100B20004B465046594601F0D9F902460B4650460D
:100B3000594692469B4601F0D1F942464B4601F098
:100B4000CDF942A3D3E900238046894651EC190B25
:100B500001F07CFB42464B4601F0C0F902460B46D1
:100B600043EC182B5046594601F0B8F980468946A7
:100B700042464B46C4E900895046594601F0AEF959
:100B800053EC182B01F0AAF9002FC4E90201BFF6BB
:100B90007CAE09F10043C4E9008301F10043C4E9DC
:100BA0000203764271E60323B4E601F099F9244B7F
:100BB0009D428046894616D01BA3D3E9002301F04D
:100BC0008FF902460B46C4E900234046494601F02E
:100BD00085F915A3D3E9002301F082F94FF0FF3620
:100BE000C4E9020151E612A3D3E9002301F078F928
:100BF00011A3D3E900238046894601F071F902462A
:100C00000B46C4E900234046494601F067F90AA3B0
:100C1000D3E9002301F064F94FF0FF36C4E9020183
:100C200033E600BFAFF300803163621A61B4D03D98
:100C30000000601A61B4D03D7370032E8A19A33B83
:100C4000FB21F93F0000002E8A19A33BC149202552
:100C50009A837B39594A8A432DE9F04106460F466B
:100C600000F0928000290B46044651DD09155DD045
:100C7000C3F31303C807A1F2FF3743F4801303D46F
:100C80005B0003EBD4736400E20F002602EB430326
:100C900060007F104FF0160E34464FF40012A1187A
:100CA000994202DC5B1A8C1816445B00BEF1010EFF
:100CB00003EBD0734FEA52024FEA4000EFD1754682
:100CC0004FF0200C4FF000420AE03FD0C10FBCF1C2
:100CD000010C01EB43034FEA40004FEA52023ED0C1
:100CE000A34202EB0E01F0DD002901EB020E09DB4D
:100CF000A0461B1B814288BF03F1FF33401A1544F5
:100D00004446E3E7BEF1000FF2DB04F10108F0E72F
:100D100021F00042024335D000293FD1E20A1539C3
:100D200013466405002AF9D0D70241D400205B00A5
:100D3000DE02054600F10100F9D51A46234684403B
:100D4000C0F12000C340491B134391E78142BDD845
:100D5000002901EB020ED5DB98460023CEE70343C2
:100D600002D0691C22D001354FEA550C731003F1F3
:100D70007F53F20703F5001348BF4CF0004C03EB20
:100D800007516046BDE8F08102460B4601F05EFA6D
:100D900032463B4601F0A4F8BDE8F081024601F07E
:100DA0009DF802460B4601F07BFBEBE70136DDE7E1
:100DB000234620204FF0FF35C4E700BF0000F07F3E
:100DC0002DE9F84F21F00049B9F1795F2DED048B41
:100DD00092469B4606460F466CDA01F0E7FC002877
:100DE00000F0EE8032463B463046394601F02EFA9E
:100DF00077A3D3E9002304460D4601F027FA76A332
:100E0000D3E9002301F06CF822462B4601F01EFACC
:100E100073A3D3E9002301F061F822462B4601F0C9
:100E200015FA71A3D3E9002301F05AF822462B46A4
:100E300001F00CFA6EA3D3E9002301F04FF822462B
:100E40002B4601F003FA6CA3D3E9002301F048F824
:100E500022462B4601F0FAF941EC180B6A4B0022AE
:100E60002046294601F0F2F953EC182B80468946BA
:100E70002046294601F0EAF952465B4604460D46F3
:100E80003046394601F0E2F902460B462046294633
:100E900001F024F802460B464046494601F01EF890
:100EA00002460B460020594901F018F8BDEC048BAE
:100EB000BDE8F88F02460B4601F0C8F944A3D3E918
:100EC000002304460D4601F0C1F943A3D3E90023F2
:100ED00001F006F822462B4601F0B8F940A3D3E909
:100EE000002300F0FBFF22462B4601F0AFF93EA3A2
:100EF000D3E9002300F0F4FF22462B4601F0A6F9C7
:100F00003BA3D3E9002300F0E9FF22462B4601F082
:100F10009DF939A3D3E9002300F0E2FF2B462246D6
:100F200001F094F93A4B994541EC180B96DD394B99
:100F300099453ADC0022A9F5001334490020904677
:100F4000994600F0CBFF41EC190B2F4B00222046B5
:100F5000294601F07BF942464B4600F0BFFF53ECB7
:100F6000182B804689462046294601F06FF95246E3
:100F70005B4604460D463046394601F067F90246A5
:100F80000B462046294600F0A9FF02460B46404684
:100F9000494600F0A3FF02460B4651EC190B00F046
:100FA0009DFFBDEC048BBDE8F88F9FED157BDFF84E
:100FB0006890B0EE479AF0EE679A4FF00008C4E7E9
:100FC000BDEC048B11490020BDE8F88FAFF3008021
:100FD000D43888BEE9FAA8BDC4B1B4BD9EEE213EA6
:100FE000AD529C804F7E923E9015CB19A001FA3EE7
:100FF0007751C1166CC1563F4C5555555555A53FB7
:10100000000000000000E73F0000E03F0000F03F6C
:101010003233D33F0000E93F0000D23F0000000020
:101020002DE9F04FADF5197D1C4608930B91B74B98
:10103000A299049053F821100591631E12F1140F28
:101040000393C0F23F83B249D31E81FB0301DB1738
:10105000C3EBA10307930133A3EB8303DB00D31896
:101060000693079A039BD41A059AD6181AD4013608
:10107000A39F264420AD4FF000084FF0000908E080
:1010800057F8240001F078F80134B442E5E8020191
:1010900008D0002CF4DA013440464946B442E5E871
:1010A0000201F6D1059B002BC0F2B783089BDDF847
:1010B0000C9020AA02EBC30ADA000292059A1A44A5
:1010C0000192049A0DF5E07B02EBC308039B002B11
:1010D000C0F2A181049E57460024002577E902232F
:1010E000F6E8020101F0B2F802460B462046294616
:1010F00000F0F6FE464504460D46EFD1019B09F18E
:1011000001099945EBE802450AF1080ADED1049A83
:10111000029B1344059A01929B460BAB03EB82039F
:101120000A930CAB03EB8203083B0993019A98AB3B
:1011300003EBC203002A53E9284529DD0DF5E07AC7
:101140000AEBC2080DF13009724B002220462946F5
:1011500001F07CF801F02AFB01F00EF86E4B002242
:1011600006460F4601F072F802460B462046294615
:1011700000F0B4FE01F01AFB78E9022349F8040BF1
:101180003946304600F0ACFED04504460D46DBD172
:10119000DDF81890204629464A4600F019FE002244
:1011A0004FF07F5304460D4601F050F800F094FDD7
:1011B0005A4B002201F04AF802460B4620462946C7
:1011C00000F08CFE0D46044601F0F0FA804600F077
:1011D000D3FF0B4602462946204600F07FFE4B46D1
:1011E000002B06460F4640F39B80019A511E0CAA25
:1011F000C9F1180352F8212042FA03F000FA03F370
:10120000D31AC9F117050CAA43FA05F5002D42F8C7
:101210002130804400F38E8000220023304639467E
:1012200001F07CFA002800F05482019B059A03F13A
:10123000FF3A524510DC03F180430CAA013B0A98A7
:1012400002EB8303002253F80419834242EA0102AD
:10125000F9D1002A40F0E280059B0CAA013B52F82C
:101260002330002B40F0D280099A012352F8041950
:1012700001330029FAD0019AD3180293531C9946DE
:10128000019A08990A449046079A02EB030A0AF168
:10129000804AA39A0AF1FF3A02EB8A0A20AA02EBDB
:1012A000C80870AA02EBC30301935AF8040F00F0B8
:1012B00063FF0B46039902460029C8E9002347460D
:1012C00008F108081EDB049E0024002501E077E9F0
:1012D0000223F6E8020100F0B9FF02460B46204661
:1012E000294600F0FDFD5E4504460D46EFD1019B09
:1012F000E3E802450193029B09F101099945D4DD18
:10130000019313E700240025F1E700BF50B6000861
:10131000ABAAAA2A0000703E0000704100002040E5
:101320006BD1019B0CAA013B52F82350ED15002D07
:101330007FF772AF019B002B08F1010840F3C781D2
:101340000C9C002C51D1019B012B20D00CAB012215
:1013500053F8044F002C4BD0531C0CA9C4F18074DB
:1013600041F822400199994210DD0CAA0CA852F8CC
:10137000232000EB830300EB81006FF07F4100E04E
:101380001A688A1A43F8042B8342F9D10124069B78
:10139000002B0EDD012B00F06C81022B09D1019B8B
:1013A0005A1E0CAB0CA953F82230C3F3150341F8B5
:1013B0002230022D7FF430AF32463B46B449002044
:1013C00000F08CFD06460F46002C3FF425AF069A30
:1013D000AF49002000F0FCFC02460B46304639467F
:1013E00000F07CFD06460F4616E701230022B4E715
:1013F000019901328A42ABD1C9E7A64B002201F024
:10140000ABF9002840F04C81054605E7019B01330C
:101410009946029334E7002400256FE6069B039566
:10142000A3F118020CABCDF81C8053F82A300692B9
:1014300073B9019B03F18043023B0CA901EB8303C9
:1014400053F804190AF1FF3A183A0029F8D0069225
:10145000069A8F49002000F0BBFCBAF1000F044649
:101460000D46C0F2D08170AB03EBCA0B0CAA0AF197
:101470000103069302EB8306DFF81C924FEACA03CE
:1014800004930BF108074FF0000856F8040D00F024
:1014900073FE22462B4600F0D9FE4B4667E9020157
:1014A00042462046294600F0D1FE0CAB9E4204463F
:1014B0000D46EAD148ABCDE9013ADDF814A0BAF106
:1014C000000F4FF000092CDB6FA3D3E90023DFF8F6
:1014D000CC815F4600260024002503E0B14510DBE7
:1014E000F8E80223F7E8020100F0B0FE02460B46DE
:1014F0002046294600F0F4FC0136B24504460D466C
:10150000ECDA019B029A03EBC9034A45C3E90045A3
:10151000ABF1080B09F1010306D0BAF1000F9946AF
:10152000D2DA00240025ECE7A29BDDF808A0022B0C
:101530001EDC002B00F3008113D1049C019D0834B4
:101540002C440020002174E9022300F0C9FCA542CC
:10155000F9D1039B13B101F1004319460B9BC3E979
:101560000001079B03F007000DF5197DBDE8F08F22
:10157000A29B032BF5D1BAF1000F00F06081019A14
:10158000049BD318D3E9004502EBCA0B7BE9026741
:101590002046294632463B4600F0A2FCA046A9461A
:1015A00004460D4622462B463046394600F096FC4E
:1015B0004B46424600F094FC019B5B45CBE902019F
:1015C000CBE90045E2D1BAF1010F40F33881019A2D
:1015D000049B0AF1005A0AF1FF3A13444FEACA0188
:1015E000D3E9004501F1080A029192440DF5947B7C
:1015F0007AE902672046294632463B4600F070FCF5
:10160000A046A94604460D4622462B46304639469A
:1016100000F064FC42464B4600F062FCD345CAE948
:101620000201CAE90045E3D1029C019B10341C442D
:1016300003F110050020002174E9022300F050FCA2
:10164000A542F9D1039B002B40F0B4800B9CC4E968
:1016500004010198D0E90023C4E90023D0E9022362
:10166000C4E90223079B03F007000DF5197DBDE8CF
:10167000F08F019B5A1E0CAB0CA953F82230C3F318
:10168000160341F8223094E600000040FB21F93FA8
:101690000000F03F0000E03F0000703E68B6000828
:1016A000019B002B08F10108C8BF02253FF748AE97
:1016B00032463B466349002000F010FC02250646F6
:1016C0000F46A9E500216FF017030791C7E4002436
:1016D0005DE63046069E039572423946CDF81C8081
:1016E00000F076FB584B002204460D4601F034F81A
:1016F000002855D0554B019F002218362046294618
:10170000069600F0A3FD01F051F8064600F034FD06
:101710004D4B002200F09AFD0B460246294620461A
:1017200000F0DCFB01F042F807F1010A0CAB43F8D2
:10173000270043F82A608BE6019D069B002005EBFD
:10174000C304002174E9022300F0CAFBA542F9D1C9
:10175000039B002B47D10B9BC3E900010B4601996A
:101760000246D1E9000100F0B9FBBAF1000F0DDD2E
:101770004AAD0124F5E80223013400F0B1FBA24593
:10178000F8DA039B13B101F1004319460B9BC3E93F
:101790000201079B03F007000DF5197DBDE8F08FEE
:1017A0002046294601F002F8019B0CAA9A4642F80D
:1017B00023004DE6019E01F1004374680B993268E5
:1017C000F568C1E9040304F10043C1E90023B268EC
:1017D00005F10043C1E90223079B03F007000DF563
:1017E000197DBDE8F08F0B9A01F1004353600B4661
:1017F000019910600246D1E9000100F06FFBBAF1D7
:10180000000FB5DCBFE7A29B022B0ADC002B11DC2A
:101810007FF4A7AE002000219BE6089BDB0002932B
:1018200075E4A29B032B7FF49CAE48AB0020002103
:10183000019307E748AB00200021019388E70020CF
:101840000021FFE60000F03F000070410000703E04
:101850002DE9F04F83B0CDE9002321F00043B3F12F
:10186000795F04460D4604DA00F0A0FF002800F07E
:10187000858022462B462046294600F0E7FC064696
:101880000F4632463B462046294600F0DFFC41A386
:10189000D3E9002382468B463046394600F0D6FC19
:1018A0003EA3D3E9002300F019FB32463B4600F08B
:1018B000CDFC3CA3D3E9002300F012FB32463B46AB
:1018C00000F0C4FC39A3D3E9002300F007FB324643
:1018D0003B4600F0BBFC37A3D3E9002300F000FB3C
:1018E0000C9B804689469BB3DDE90001284B002212
:1018F00000F0ACFC42464B4680468946504659466D
:1019000000F0A4FC02460B464046494600F0E6FAC9
:1019100032463B4600F09AFCDDE9002300F0DEFA97
:1019200019A3D3E9002306460F465046594600F056
:101930008DFC02460B463046394600F0D1FA02468D
:101940000B462046294600F0C9FA03B0BDE8F08FE7
:1019500002460B463046394600F078FC0AA3D3E92C
:10196000002300F0BBFA52465B4600F06FFC2246B3
:101970002B4600F0B5FA03B0BDE8F08F20462946AB
:1019800003B0BDE8F08F00BF495555555555C53FCB
:101990000000E03F7CD5CF5A3AD9E53DEB9C2B8A3D
:1019A000E6E55A3E7DFEB157E31DC73ED561C1193C
:1019B000A0012A3FA6F810111111813F000000007C
:1019C0002DE9F84FB84B21F000469E4204460D46E3
:1019D0008A4616DDB54B9E420BDC08D0BAF1000FEB
:1019E00040F3BD8094A1D1E90001BDE8F88F002843
:1019F000F4D022462B462046294600F071FABDE875
:101A0000F88FAB4B9E4200F3AF80A3F1DE739E4292
:101A100040F396804FF0FF3B22462B462046294656
:101A200000F014FC02460B468046894600F00EFC8E
:101A300083A3D3E9002306460F4600F007FC82A3E8
:101A4000D3E9002300F04CFA32463B4600F0FEFB9F
:101A50007FA3D3E9002300F043FA32463B4600F06F
:101A6000F5FB7DA3D3E9002300F03AFA32463B466A
:101A700000F0ECFB7AA3D3E9002300F031FA324600
:101A80003B4600F0E3FB78A3D3E9002300F028FAFB
:101A900042464B4600F0DAFB75A3D3E900238046AB
:101AA00089463046394600F0D1FB73A3D3E90023C1
:101AB00000F014FA32463B4600F0C8FB70A3D3E9AD
:101AC000002300F00BFA32463B4600F0BFFB6EA34A
:101AD000D3E9002300F002FA32463B4600F0B6FBA1
:101AE0006BA3D3E9002300F0F9F932463B4600F03E
:101AF000ADFBBBF1FF3F02460B464046494652D084
:101B00006C4E00F0EDF906EBCB0B22462B4600F0B5
:101B10009DFBDBE9082300F0E1F922462B4600F0AB
:101B2000DDF902460B46DBE9000100F0D7F9BAF116
:101B3000000FBFF664AF01F100431946BDE8F88F0E
:101B400055A3D3E9002300F0CBF95B4B002200F052
:101B50000DFE00283FF45EAF204629464FE750A116
:101B6000D1E90001BDE8F88F00F0B0F8534B9E4278
:101B700004460D4625DCA3F550239E424CDC02466C
:101B80000B4600F0ADF94C4B002200F0A7F90246DD
:101B90000B462046294614461D464FF0000B0022F6
:101BA0004FF0804322E000F09BF922462B4600F0E4
:101BB0004DFB02460B462046294600F08FF9BDE852
:101BC000F88F3F4B9E421CDA3E4B002200F086F914
:101BD00002460B462046294614461D460022394B34
:101BE0004FF0020B00F032FB334B002200F078F98B
:101BF00002460B462046294600F052FC04460D469C
:101C00000AE722462B463049002000F049FC4FF0FD
:101C1000030B04460D46FFE6274B002200F05EF959
:101C200002460B46204629464FF0010B14461D463E
:101C3000DAE700BFAFF30080182D4454FB21F93FD1
:101C400011DA22E33AAD903FEB0D76244B7BA93FAE
:101C5000513DD0A0660DB13F6E204CC5CD45B73F7C
:101C6000FF8300922449C23F0D5555555555D53F28
:101C70002F6C6A2C44B4A2BF9AFDDE522DDEAD3F1C
:101C80006D9A74AFF2B0B33F711623FEC671BC3FBC
:101C9000C4EB98999999C93F9C7500883CE4377EBC
:101CA000182D4454FB21F9BFFFFF0F440000F07FC3
:101CB000FFFFDB3FA0B600080000F03FFFFFF23F50
:101CC000008003400000F83F0000F0BF21F0004119
:101CD000704700BF00000000C1F30A5CF8B5ACF229
:101CE000FF35132D02460B460C4606462FDC002D11
:101CF0001DDB354F2F4101EA070C5CEA000C2BD0AD
:101D00002FA3D3E9002300F0EBF80022002300F01A
:101D10002DFD48B1002C04DA4FF4801343FA05F589
:101D20002C4424EA0704002621463046F8BD24A3AB
:101D3000D3E9002300F0D4F80022002300F016FDC0
:101D40000028F1D0002C25DB00263446ECE7332DAB
:101D500005DDB5F5806F1AD010461946F8BDACF216
:101D6000134C4FF0FF3727FA0CF70742F4D014A3B7
:101D7000D3E9002300F0B4F80022002300F0F6FCC1
:101D80000028D1D0002C0EDB26EA0706CCE700F0B5
:101D9000A7F8F8BD24F000430C4A1E43002E18BFDC
:101DA00014460026C0E7142D08D00123C5F13405E0
:101DB00003FA05F5AE1928BFE418E5E70134E3E7B7
:101DC0009C7500883CE4377EFFFF0F000000F0BFE9
:101DD000C1F30A5370B58C4604460D4616465BBBEC
:101DE00021F0004C03465CEA030324D0364B00226A
:101DF00000F02CFA354B9E4204460D4616DBC1F32B
:101E00000A538C46363B334440F2FE7293421CDC4C
:101E1000002B3BDC13F1350F2BDA4CF250339E4292
:101E200013DC002D20A1D1E9000137DB1EA3D3E98B
:101E3000002300F00BFA70BD40F2FF729342E2D132
:101E400002460B4600F04CF870BD002D18A1D1E9F8
:101E5000000105DB16A3D3E9002300F0F7F970BDFC
:101E600013A3D3E9002314A1D1E9000100F0EEF996
:101E7000F5E72CF0FF4C36332CF4E00C4CEA035120
:101E80002046134B002200F0E1F970BD2CF0FF4C0E
:101E90002CF4E00C20464CEA035170BD08A1D1E9B6
:101EA0000001C3E7AFF3008059F3F8C21F6EA5012C
:101EB0009C7500883CE4377E9C7500883CE437FEC6
:101EC00059F3F8C21F6EA58100005043B03CFFFFDC
:101ED0000000903C81F0004102E000BF83F000432D
:101EE00030B54FEA41044FEA430594EA050F08BFB5
:101EF00090EA020F1FBF54EA000C55EA020C7FEA79
:101F0000645C7FEA655C00F0E2804FEA5454D4EBF5
:101F10005555B8BF6D420CDD2C4480EA020281EABF
:101F2000030382EA000083EA010180EA020281EAF7
:101F30000303362D88BF30BD11F0004F4FEA013149
:101F40004FF4801C4CEA113102D0404261EB410158
:101F500013F0004F4FEA03334CEA133302D05242DE
:101F600063EB430394EA050F00F0A780A4F101049A
:101F7000D5F1200E0DDB02FA0EFC22FA05F28018D4
:101F800041F1000103FA0EF2801843FA05F35941BA
:101F90000EE0A5F120050EF1200E012A03FA0EFC39
:101FA00028BF4CF0020C43FA05F3C01851EBE37163
:101FB00001F0004507D54FF0000EDCF1000C7EEB80
:101FC00000006EEB0101B1F5801F1BD3B1F5001FBE
:101FD0000CD349085FEA30004FEA3C0C04F10104DD
:101FE0004FEA445212F5800F80F09A80BCF1004F06
:101FF00008BF5FEA500C50F1000041EB045141EA88
:10200000050130BD5FEA4C0C404141EB0101013C50
:1020100028BFB1F5801FE9D291F0000F04BF01463F
:102020000020B1FA81F308BF2033A3F10B03B3F111
:1020300020020CDA0C3208DD02F1140CC2F10C02A1
:1020400001FA0CF021FA02F10CE002F11402D8BFFF
:10205000C2F1200C01FA02F120FA0CFCDCBF41EACB
:102060000C019040E41AA2BF01EB0451294330BD9A
:102070006FEA04041F3C1CDA0C340EDC04F1140477
:10208000C4F1200220FA04F001FA02F340EA03004E
:1020900021FA04F345EA030130BDC4F10C04C4F194
:1020A000200220FA02F001FA04F340EA0300294674
:1020B00030BD21FA04F0294630BD94F0000F83F4BE
:1020C000801306BF81F480110134013D4EE77FEAA1
:1020D000645C18BF7FEA655C29D094EA050F08BFED
:1020E00090EA020F05D054EA000C04BF19461046CE
:1020F00030BD91EA030F1EBF0021002030BD5FEA12
:10210000545C05D14000494128BF41F0004130BD39
:1021100014F580043CBF01F5801130BD01F000458D
:1021200045F0FE4141F470014FF0000030BD7FEA00
:10213000645C1ABF194610467FEA655C1CBF0B46FB
:10214000024650EA013406BF52EA033591EA030F12
:1021500041F4002130BD00BF90F0000F04BF00210A
:10216000704730B54FF4806404F132044FF000053D
:102170004FF0000150E700BF90F0000F04BF0021B6
:10218000704730B54FF4806404F1320410F000451C
:1021900048BF40424FF000013EE700BF42004FEA17
:1021A000E2014FEA31014FEA02701FBF12F07F4394
:1021B00093F07F4F81F06051704732F07F4208BF4B
:1021C000704793F07F4F04BF41F40021704730B552
:1021D0004FF4607401F0004521F000411CE700BF9E
:1021E00050EA010208BF704730B54FF000050AE021
:1021F00050EA010208BF704730B511F0004502D522
:10220000404261EB41014FF4806404F132045FEA23
:10221000915C3FF4D8AE4FF003025FEADC0C18BFCC
:1022200003325FEADC0C18BF033202EBDC02C2F1BE
:10223000200300FA03FC20FA02F001FA03FE40EA50
:102240000E0021FA02F11444BDE600BF70B54FF054
:10225000FF0C4CF4E06C1CEA11541DBF1CEA135532
:1022600094EA0C0F95EA0C0F00F0DEF82C4481EA9A
:10227000030621EA4C5123EA4C5350EA013518BFBA
:1022800052EA033541F4801143F4801338D0A0FBA7
:1022900002CE4FF00005E1FB02E506F00042E0FB54
:1022A00003E54FF00006E1FB03569CF0000F18BF5A
:1022B0004EF0010EA4F1FF04B6F5007F64F5407402
:1022C00004D25FEA4E0E6D4146EB060642EAC62195
:1022D00041EA55514FEAC52040EA5E504FEACE2E02
:1022E000B4F1FD0C88BFBCF5E06F1ED8BEF1004F05
:1022F00008BF5FEA500E50F1000041EB045170BD81
:1023000006F0004646EA010140EA020081EA0301C4
:10231000B4EB5C04C2BFD4EB0C0541EA045170BDC0
:1023200041F480114FF0000E013C00F3AB8014F13A
:10233000360FDEBF002001F0004170BDC4F1000483
:10234000203C35DA0C341BDC04F11404C4F1200504
:1023500000FA05F320FA04F001FA05F240EA02005F
:1023600001F0004221F0004110EBD37021FA04F695
:1023700042EB06015EEA430E08BF20EAD37070BD4F
:10238000C4F10C04C4F1200500FA04F320FA05F0AE
:1023900001FA04F240EA020001F0004110EBD370B0
:1023A00041F100015EEA430E08BF20EAD37070BD20
:1023B000C4F1200500FA05F24EEA020E20FA04F3F9
:1023C00001FA05F243EA020321FA04F001F00041A8
:1023D00021FA04F220EA020000EBD3705EEA430E19
:1023E00008BF20EAD37070BD94F0000F0FD101F048
:1023F0000046400041EB010111F4801F08BF013C81
:10240000F7D041EA060195F0000F18BF704703F0BE
:102410000046520043EB030313F4801F08BF013D45
:10242000F7D043EA0603704794EA0C0F0CEA135501
:1024300018BF95EA0C0F0CD050EA410618BF52EABB
:102440004306D1D181EA030101F000414FF00000C1
:1024500070BD50EA410606BF1046194652EA4306CF
:1024600019D094EA0C0F02D150EA013613D195EA43
:102470000C0F05D152EA03361CBF104619460AD18B
:1024800081EA030101F0004141F0FE4141F4700195
:102490004FF0000070BD41F0FE4141F4780170BD85
:1024A00070B54FF0FF0C4CF4E06C1CEA11541DBFEA
:1024B0001CEA135594EA0C0F95EA0C0F00F0A7F8EC
:1024C000A4EB050481EA030E52EA03354FEA013119
:1024D00000F088804FEA03334FF0805545EA13132C
:1024E00043EA12634FEA022245EA111545EA1065F4
:1024F0004FEA00260EF000419D4208BF964244F18B
:10250000FD0404F5407402D25B084FEA3202B61AA9
:1025100065EB03055B084FEA32024FF480104FF47D
:10252000002CB6EB020E75EB030E22BFB61A7546F1
:1025300040EA0C005B084FEA3202B6EB020E75EB84
:10254000030E22BFB61A754640EA5C005B084FEAEC
:102550003202B6EB020E75EB030E22BFB61A7546B9
:1025600040EA9C005B084FEA3202B6EB020E75EBC4
:10257000030E22BFB61A754640EADC0055EA060E85
:1025800018D04FEA051545EA16754FEA06164FEAC8
:10259000C30343EA52734FEAC2025FEA1C1CC0D174
:1025A00011F4801F0BD141EA00014FF000004FF001
:1025B000004CB6E711F4801F04BF01430020B4F1C2
:1025C000FD0C88BFBCF5E06F3FF6AFAEB5EB030C7A
:1025D00004BFB6EB020C5FEA500C50F1000041EB77
:1025E000045170BD0EF0004E4EEA113114EB5C0444
:1025F000C2BFD4EB0C0541EA045170BD41F4801117
:102600004FF0000E013C90E645EA060E8DE60CEA1E
:10261000135594EA0C0F08BF95EA0C0F3FF43BAF3B
:1026200094EA0C0F0AD150EA01347FF434AF95EAF2
:102630000C0F7FF425AF104619462CE795EA0C0FD6
:1026400006D152EA03353FF4FDAE1046194622E7A3
:1026500050EA410618BF52EA43067FF4C5AE50EA7D
:1026600041047FF40DAF52EA43057FF4EBAE12E76D
:102670004FF0FF3C06E000BF4FF0010C02E000BF4E
:102680004FF0010C4DF804CD4FEA410C7FEA6C5C31
:102690004FEA430C18BF7FEA6C5C1BD001B050EAD4
:1026A000410C0CBF52EA430C91EA030F02BF90EABF
:1026B000020F0020704710F1000F91EA030F58BF7E
:1026C000994208BF90422CBFD8176FEAE37040F0E0
:1026D000010070474FEA410C7FEA6C5C02D150EA7E
:1026E000013C07D14FEA430C7FEA6C5CD6D152EA39
:1026F000033CD3D05DF8040B704700BF84461046FE
:1027000062468C461946634600E000BF01B5FFF7FC
:10271000B7FF002848BF10F1000F01BD4DF808EDCC
:10272000FFF7F4FF0CBF012000205DF808FB00BF9D
:102730004DF808EDFFF7EAFF34BF012000205DF8F7
:1027400008FB00BF4DF808EDFFF7E0FF94BF012044
:1027500000205DF808FB00BF4DF808EDFFF7CEFF45
:1027600094BF012000205DF808FB00BF4DF808ED84
:10277000FFF7C4FF34BF012000205DF808FB00BF55
:102780004FEA410C7FEA6C5C02D150EA013C0AD16D
:102790004FEA430C7FEA6C5C02D152EA033C02D15F
:1027A0004FF0000070474FF0010070474FEA4102C0
:1027B00012F5001215D211D56FF47873B3EB625293
:1027C00012D94FEAC12343F0004343EA505311F0BA
:1027D000004F23FA02F018BF404270474FF000004C
:1027E000704750EA013005D111F0004008BF6FF08A
:1027F000004070474FF00000704700BF4FEA4102B1
:10280000B2F1E04324BFB3F5001CDCF1FE5C0DD94E
:1028100001F0004C4FEAC0024CEA5070B2F1004F98
:1028200040EB830008BF20F00100704711F0804F9B
:1028300021D113F13872BCBF01F00040704741F460
:1028400080114FEA5252C2F11802C2F1200C10FA64
:102850000CF320FA02F018BF40F001004FEAC12348
:102860004FEAD32303FA0CFC40EA0C0023FA02F3EC
:102870004FEA4303CCE77FEA625307D150EA0133C2
:102880001EBF4FF0FE4040F44000704701F0004092
:1028900040F0FE4040F40000704700BF53B94AB911
:1028A000002908BF00281CBF4FF0FF314FF0FF3058
:1028B00000F074B9ADF1080C6DE904CE00F006F833
:1028C000DDF804E0DDE9022304B070472DE9F047AC
:1028D000089D04468E46002B4DD18A42944669D904
:1028E000B2FA82F252B101FA02F3C2F1200120FAE7
:1028F00001F10CFA02FC41EA030E94404FEA1C4835
:10290000210CBEFBF8F61FFA8CF708FB16E341EA30
:10291000034306FB07F199420AD91CEB030306F1B6
:10292000FF3080F01F81994240F21C81023E6344D7
:102930005B1AA4B2B3FBF8F008FB103344EA03447B
:1029400000FB07F7A7420AD91CEB040400F1FF3390
:1029500080F00A81A74240F207816444023840EACD
:102960000640E41B00261DB1D4400023C5E9004306
:102970003146BDE8F0878B4209D9002D00F0EF8089
:102980000026C5E9000130463146BDE8F087B3FABC
:1029900083F6002E4AD18B4202D3824200F2F980A4
:1029A000841A61EB030301209E46002DE0D0C5E9A7
:1029B000004EDDE702B9FFDEB2FA82F2002A40F0F3
:1029C0009280A1EB0C014FEA1C471FFA8CFE0126F6
:1029D000200CB1FBF7F307FB131140EA01410EFB9A
:1029E00003F0884208D91CEB010103F1FF3802D241
:1029F000884200F2CB804346091AA4B2B1FBF7F03B
:102A000007FB101144EA01440EFB00FEA64508D95D
:102A10001CEB040400F1FF3102D2A64500F2BB809A
:102A20000846A4EB0E0440EA03409CE7C6F12007E9
:102A3000B34022FA07FC4CEA030C20FA07F401FA2F
:102A400006F31C43F9404FEA1C4900FA06F3B1FBB8
:102A5000F9F8200C1FFA8CFE09FB181140EA01411D
:102A600008FB0EF0884202FA06F20BD91CEB0101BA
:102A700008F1FF3A80F08880884240F28580A8F112
:102A800002086144091AA4B2B1FBF9F009FB101164
:102A900044EA014100FB0EFE8E4508D91CEB010102
:102AA00000F1FF346CD28E456AD90238614440EAA5
:102AB0000840A0FB0294A1EB0E01A142C846A64625
:102AC00056D353D05DB1B3EB080261EB0E0101FAAE
:102AD00007F722FA06F3F1401F43C5E9007100260B
:102AE0003146BDE8F087C2F12003D8400CFA02FC61
:102AF00021FA03F3914001434FEA1C471FFA8CFE71
:102B0000B3FBF7F007FB10360B0C43EA064300FB60
:102B10000EF69E4204FA02F408D91CEB030300F1FE
:102B2000FF382FD29E422DD9023863449B1B89B2B5
:102B3000B3FBF7F607FB163341EA034106FB0EF33E
:102B40008B4208D91CEB010106F1FF3816D28B42EB
:102B500014D9023E6144C91A46EA004638E72E46B7
:102B6000284605E70646E3E61846F8E64B45A9D2AF
:102B7000B9EB020864EB0C0E0138A3E74646EAE71E
:102B8000204694E74046D1E7D0467BE7023B6144CC
:102B900032E7304609E76444023842E7704700BF35
:102BA000014B1868704700BF0400002000207047E8
:102BB000014900F037B900BF5136000800207047C6
:102BC00070B568224D1E02FB05F50E4605F1740135
:102BD00000F08EFA044640B100210C30C4E9001622
:102BE000A06005F1680200F031FA204670BD00BF18
:102BF000274B2DE9F0411E68B369074653B34836A9
:102C00004FF00408D6E90134013B04D51EE05A1CFC
:102C100004F168041AD0B4F90C50013B002DF6D130
:102C20001C4B6566C4E90055C4E90253C4E9045568
:102C3000A5610822294604F15C0000F007FAC4E906
:102C40000D55C4E912552046BDE8F08135682DB117
:102C50002E46D7E7304600F01FF8D0E74FF4D67184
:102C6000384600F045FA044668B10560C0F80480B3
:102C70000C302946A06025464FF4D07200F0E6F9EA
:102C800034602E46BEE70C2330603B60DBE700BFBC
:102C900040B700080100FFFF2DE9F84F344B3549DC
:102CA0001A68816290424FF00003C0E91233036555
:102CB00004BF012383610546FFF79AFF6860284639
:102CC000FFF796FFA8602846FFF792FF6F68E8605D
:102CD00000240423C7E9024308222146C7E900442F
:102CE000C7E904447C66BC6107F15C0000F0AEF902
:102CF000DFF88CB0AE68DFF88CA0DFF88C90DFF8DE
:102D00008C801D4BC7F828A0C7E9087BC7F82C901A
:102D1000C7F830800822F360C6E90044C6E90444DD
:102D20007466B460B461214606F15C0000F08EF96F
:102D3000C6E9086BC6E90AA9C6F83080EE680F4BF1
:102D4000F360C6E90044C6E904447466B460B46143
:102D50002146082206F15C0000F078F90123C6E95B
:102D6000086BC6E90B98C6F828A0AB61BDE8F88FE0
:102D700040B70008B12B0008090001001200020052
:102D80005D34000885340008C5340008E5340008C7
:102D9000024B0349186800F045B800BF40B700086F
:102DA00051360008836903B976E77047704700BF62
:102DB000704700BF704700BF704700BF024B034918
:102DC000186800F00FB800BF04000020AD2B000809
:102DD000024B0349186800F005B800BF040000204A
:102DE000BD2B00082DE9F041884600F14807002678
:102DF000D7E90154013D0FD4A389012B05F1FF351B
:102E000006D9B4F90E300133204601D0C04706433D
:102E10006B1C04F16804EFD13F68002FE8D1304605
:102E2000BDE8F0812DE9F8430746884600F14806E1
:102E30004FF00009D6E90154013D11D4A389012BBB
:102E400005F1FF3508D9B4F90E300133214603D01E
:102E50003846C04749EA00096B1C04F16804EDD10B
:102E60003668002EE6D14846BDE8F88370B50D4EB1
:102E70000D4D761BB61006D0002455F8043B0134E6
:102E80009847A642F9D1094E094D761B08F0EEFA93
:102E9000B61006D0002455F8043B01349847A642EA
:102EA000F9D170BDF4B90008F4B90008F8B9000808
:102EB000F4B90008032A70B515D940EA010C1CF0DA
:102EC000030F04460B4621D1194620460E680568BB
:102ED000B54204F1040403F1040317D1043A032AB0
:102EE00020461946F0D8541EA2B100F1FF3C01392A
:102EF00001E0C3180CD01CF801EF11F8012F964522
:102F0000A4EB0C03F5D0AEEB020070BD541EECE751
:102F1000184670BD104670BD844641EA000313F0A8
:102F200003036DD1403A41D351F8043B40F8043BD0
:102F300051F8043B40F8043B51F8043B40F8043B93
:102F400051F8043B40F8043B51F8043B40F8043B83
:102F500051F8043B40F8043B51F8043B40F8043B73
:102F600051F8043B40F8043B51F8043B40F8043B63
:102F700051F8043B40F8043B51F8043B40F8043B53
:102F800051F8043B40F8043B51F8043B40F8043B43
:102F900051F8043B40F8043B51F8043B40F8043B33
:102FA00051F8043B40F8043B403ABDD2303211D3D3
:102FB00051F8043B40F8043B51F8043B40F8043B13
:102FC00051F8043B40F8043B51F8043B40F8043B03
:102FD000103AEDD20C3205D351F8043B40F8043BD3
:102FE000043AF9D2043208D0D2071CBF11F8013BD1
:102FF00000F8013B01D30B8803806046704700BF97
:10300000082A13D38B078DD010F003038AD0C3F1A5
:103010000403D21ADB071CBF11F8013B00F8013B87
:1030200080D331F8023B20F8023B7BE7043AD9D346
:10303000013A11F8013B00F8013BF9D20B7803701B
:103040004B7843708B78837060467047830730B548
:1030500048D0541E002A3FD0CAB2034601E0013CCA
:103060003AD303F8012B9D07F9D1032C2DD9CDB20A
:1030700045EA05250F2C45EA054536D9A4F110028D
:1030800022F00F0C03F1200EE6444FEA121C03F16C
:10309000100242E9045542E9025510327245F8D156
:1030A0000CF1010214F00C0F03EB021204F00F0CF0
:1030B00013D0ACF1040323F003030433134442F8A8
:1030C000045B9342FBD10CF003042CB1CAB21C4444
:1030D00003F8012B9C42FBD130BD64461346002C03
:1030E000F4D1F9E703461446BFE71A46A446E0E7E1
:1030F000F8B5CD1C25F0030508350C2D38BF0C257F
:10310000002D064623DBA94221D8254F00F0BEFB47
:103110003A6822B3144603E063682246FBB11C46BA
:1031200023685B1BF8D40B2B15D8636894420CBF43
:103130003B605360304600F0ABFB04F10B00231DF5
:1031400020F00700C21A01D01B1AA350F8BD0C23AF
:1031500033600020F8BD23601C442560EAE77968ED
:10316000C9B12946304600F0A7F8431C0CD0C41C56
:1031700024F00304A04205D0211A304600F09CF848
:10318000013001D02560D5E70C233046336000F0D4
:103190007FFB0020F8BD304600F08EF87860E0E755
:1031A000940000202DE9F0410E680C460546BEB1A2
:1031B00037688FB1D7F80080B8F1000F08D0D8F881
:1031C000001009B1FFF7EEFF4146284600F062FB10
:1031D0003946284600F05EFB3146284600F05AFB8F
:1031E00021462846BDE8F04100F054BB314B1B6836
:1031F000834259D0426A70B50546002A4FD0D16843
:1032000091B100268C5944B121462468284600F02B
:1032100041FB002CF8D16B6AD9680436802EF1D1BD
:10322000284600F037FB6A6A116800293DD028461D
:1032300000F030FB696911B1284600F02BFB6A6A87
:103240001AB11146284600F025FBA96B11B128469A
:1032500000F020FBE96B11B1284600F01BFB296C44
:1032600011B1284600F016FBE96D11B1284600F0B7
:1032700011FBA96D11B1284600F00CFB696B11B16F
:10328000284600F007FBAB696BB1AB6A284698474C
:10329000A96C41B12846BDE87040FFF783BF416982
:1032A0000029C9D1D1E770BD704769690029C3D130
:1032B000C7E700BF0400002038B5074D00220446D0
:1032C00008462A6000F018FE431C00D038BD2B6869
:1032D000002BFBD0236038BD9C0000202DE9F0437B
:1032E0005A4C276883B004460E4690461D4617B1D7
:1032F000BB69002B64D0564B9C4267D0554B9C4217
:1033000066D0554B9C4208BFFC68B8F1020F06D04E
:10331000B8F1010F00F28680002DC0F283802146B3
:10332000384600F095F9616B41B104F144039942CC
:1033300002D0384600F0AEFA00236363B4F90CC043
:1033400000231CF0800FA361636050D12CF44A6C01
:103350002CF0030CB8F1020FA4F80CC04ED001AB56
:103360006A462146384600F053FAA3891843A081E3
:10337000002D2FD1009D284600F078FA064600283F
:1033800053D0A38943F08003A381BB693BB3B4F955
:103390000C202660B8F1010F04BF42F00102A281A7
:1033A00012F00800C4E9046593B21CD013F00100C8
:1033B00034D000206D42A060A56103B0BDE8F08369
:1033C0003846FFF7EFFC224B9C4297D17C689CE784
:1033D000BC689AE7002ECED0BB69002BD7D1384607
:1033E000FFF7E0FCD3E7A06003B0BDE8F0832169FC
:1033F000384600F04FFAB4F90CC0A7E7002004F1FA
:1034000047034CF0020C00210122C4E90432A4F865
:103410000CC0A160236003B0BDE8F083A56003B0D9
:10342000BDE8F0834FF0FF30DEE7DDF80090A945FE
:1034300004D0484600F01AFA064620B9B4F90CC088
:103440004FF0FF30DBE74D469BE700BF0400002054
:1034500020B7000800B70008E0B6000810B50C4619
:10346000B1F90E1000F078FA002803DB636D034415
:10347000636510BDA38923F48053A38110BD00BFF1
:10348000002070472DE9F0410C46B1F90C101F46A1
:10349000CB05054616460BD421F48051A1813B464D
:1034A000B4F90E1032462846BDE8F04100F01EB8CF
:1034B000B4F90E100223002200F034F9B4F90C1014
:1034C000EAE700BF10B50C46B1F90E1000F02AF97A
:1034D000A389421C0EBF23F4805343F480536065DC
:1034E000A38110BDB1F90E1000F016B838B50C4626
:1034F000084D8446114620461A4600232B60644638
:1035000007F092F8431C00D038BD2B68002BFBD08D
:10351000236038BD9C00002038B5074D00220446CA
:1035200008462A6007F09AF8431C00D038BD2B6883
:10353000002BFBD0236038BD9C0000208B891A072C
:103540002DE9F0410C4680463FD44A68002A58DDF8
:10355000E66A002E52D00022D8F80050C8F80020A9
:1035600013F4805251D10123216A4046B047431CD5
:103570005ED0A389E66A5F0705D56368C01A636BEE
:103580000BB1236CC01A216A024600234046B047A3
:10359000411C3CD1D8F80030002B38D01D2B01D075
:1035A000162B4DD123690022C4E90032616BC8F8A3
:1035B000005019B304F14403994202D0404600F090
:1035C00069F900206063BDE8F0810E69B6B10D684D
:1035D0000E609A070CBF4B690023AD1B8B600BE09C
:1035E0002B463246216AA76A4046B847B0F1000C24
:1035F000A5EB0C05664413DD002DF1DC0020BDE8D1
:10360000F0810A6C002AA3DCF8E7606DB3E70023C1
:10361000636023692360A389DB04C7D56065C5E7C0
:10362000A38943F040034FF0FF30A381BDE8F08150
:10363000D8F80030002B9CD01D2B06D0162B04D0C0
:10364000A38943F04003A381D9E7C8F80050D5E728
:1036500038B50B69BBB10D46044608B18369B3B1F7
:103660000D4B9D4211D00D4B9D4213D00C4B9D42F2
:1036700008BFE568B5F90C302BB129462046BDE8F6
:103680003840FFF75BBF002038BD6568F2E7FFF701
:1036900089FBE5E7A568EDE720B7000800B700085B
:1036A000E0B6000838B540B303690446E3B1174BF0
:1036B0001D680DB1AB69CBB1154B9C420FD0154BBA
:1036C0009C4221D0144B9C4208BFEC68B4F90C30EA
:1036D00053B121462846BDE83840FFF72FBF6C683C
:1036E000B4F90C30002BF4D1002038BD2846FFF788
:1036F00059FB074B9C42E2D1F1E7084B0849186897
:10370000BDE83840FFF78EBBAC68DFE7040000205F
:1037100020B7000800B70008E0B6000840B700086E
:103720005136000838B50C46084D844611462046EF
:103730001A4600232B60644606F09CFF431C00D011
:1037400038BD2B68002BFBD0236038BD9C000020C7
:10375000F0B58B890C46990797B007D504F147035C
:103760000122C4E90432236017B0F0BDB4F90E1091
:10377000002905462DDB6A4600F004F9002827DB06
:10378000019E06F470464FF48067A6F50056B6FA1F
:1037900086F6394628467609FFF7AAFC30B3A38996
:1037A0001A4AAA6243F08003C4E90407A381206097
:1037B000002ED9D0B4F90E10284600F0F9F80028F0
:1037C000D2D0A38923F0030343F00103A381CBE705
:1037D000A38913F0800F14BF40274FF48067394648
:1037E00028460026FFF784FC0028D8D1B4F90C3015
:1037F0009A05B9D423F0030304F1470243F002030E
:103800000121C4E90421A3812260ADE7B12B0008A6
:1038100070B50C46B1F90E10002996B016461D463B
:1038200013DB6A4600F0AEF800280EDB019901F4C4
:103830007041A1F50051B1FA81F14FF4806349095B
:1038400000202960336016B070BDB4F90C3000223E
:103850001B062A6004D540230020336016B070BDDB
:103860004FF480630020336016B070BD024B0146F8
:103870001868FFF73DBC00BF04000020024B014662
:10388000186800F007B800BF04000020704700BFB0
:10389000704700BF002958D030B551F8043C83B0C0
:1038A000002BA1F10404B8BFE4180190FFF7EEFF6C
:1038B000284A0198136833B1A3420DD9216804EB5B
:1038C000010C63452FD06360146003B0BDE8304045
:1038D000FFF7DEBFA34210D81A465B68002BF9D170
:1038E000116802EB010C644519D02FD3636054605A
:1038F00003B0BDE83040FFF7CBBF116802EB010C0D
:10390000A44516D022D8216804EB010C6345EDD103
:103910001D685B682944C4E900135460D5E7236837
:1039200019441160D1E71D685B682944C4E900139C
:10393000CAE7246821445418A3421160C5D1D3E9D1
:1039400000432144C2E90013BFE770470C23036022
:10395000BBE700BF9400002038B50C46084D8446F4
:10396000114620461A4600232B60644606F08AFE64
:10397000431C00D038BD2B68002BFBD0236038BD22
:103980009C00002070B50C46084D034600262046DA
:1039900011461C462E6006F08DFE431C00D070BD03
:1039A0002B68002BFBD0236070BD00BF9C00002063
:1039B00038B5074D0022044608462A6006F028FE66
:1039C000431C00D038BD2B68002BFBD0236038BDD2
:1039D0009C00002008B50C480C4B03600923436091
:1039E00000238360C3604FF40032026143610376B9
:1039F00043768376C3760377437700F049FD00B9B9
:103A000008BD00F03BF9FBE7A00000200064004087
:103A100010B588B00023039304930593069307938E
:103A20000268184B9A4201D008B010BD00240194DE
:103A300003F5EA331A6C42F000721A641A6C02F051
:103A400000720192019A02941A6B42F008021A6302
:103A50001B6B03F008030293029B032303930222D0
:103A6000049206930923079303A9074801F074FB06
:103A700022460521142001F00DF9142001F042F92D
:103A8000D2E700BF00640040000C024010B582B0D5
:103A9000002401940D4B1A6B42F480021A631B6BD5
:103AA00003F480030193019B22460521392001F094
:103AB000F1F8392001F026F922460521452001F0D0
:103AC000E9F8452001F01EF902B010BD00380240AF
:103AD00008B50B4A00210B4803F04EF80A4B18605A
:103AE0000A4A00210A4803F047F80A4B18600A4ABC
:103AF00000210A4803F040F8094B186008BD00BFD8
:103B00006CB70008219C0008C8000020B4B700086A
:103B1000B5900008D000002090B70008459000083C
:103B2000CC000020F0B58FB0002409940A940B94C7
:103B30000C940D940194474B1A6B42F010021A63D7
:103B40001A6B02F010020192019A02941A6B42F071
:103B500040021A631A6B02F040020292029A039426
:103B60001A6B42F002021A631A6B02F0020203920D
:103B7000039A04941A6B42F001021A631A6B02F062
:103B800001020492049A05941A6B42F008021A6327
:103B90001A6B02F008020592059A06941A6B42F01D
:103BA00004021A631A6B02F004020692069A079442
:103BB0001A6B42F020021A631A6B02F0200207927D
:103BC000079A08941A6B42F080021A631B6B03F089
:103BD00080030893089B204D22460321284601F0CC
:103BE000B9FB1E4E01224FF40061304601F0B2FBDA
:103BF00001224FF48041284601F0ACFB44F203035C
:103C0000099301270A970B940C9409A9284601F0FF
:103C1000A3FA4FF4704309934FF488130A930223D5
:103C20000B9309A90E4801F097FA4FF4006309932A
:103C30000A970B940C9409A9304601F08DFA22469C
:103C40000521282001F026F8282001F05BF80FB0AC
:103C5000F0BD00BF003802400014024000100240D6
:103C6000000C024008B50268034B9A4200D008BD20
:103C700000F0FCFBFBE700BF0000014072B6FEE76E
:103C800000B595B03022002108A8FFF7DFF9002326
:103C9000039304930593069307930193234A116CAE
:103CA00041F080511164126C02F080520192019A2D
:103CB00002931F4B1A6842F440421A601B6803F4D7
:103CC00040430293029B012308934FF480330993EE
:103CD00002230E934FF480020F9206221092B42218
:103CE000119212930723139308A801F08FFBB0B928
:103CF00001F04EFBA8B90F23039302230493002382
:103D000005934FF4A05306934FF480530793052176
:103D100003A801F0C9FD30B915B05DF804FBFFF749
:103D2000ADFFFFF7ABFFFFF7A9FF00BF0038024070
:103D30000070004008B500F07FFBFFF7A1FFFFF720
:103D4000F1FEFFF7A3FEFFF745FE00F01DFA00F0BD
:103D500057F900F0E5F900F0C9F900F0FBF9064861
:103D600006F046FC06F04CFB02F0D8FEFFF7B0FE72
:103D700002F0E6FEFEE700BF2802002000B583B097
:103D8000002200920D4B596C41F480415964596CEA
:103D900001F48041009100990192196C41F0805129
:103DA00019641B6C03F080530193019B0F216FF08A
:103DB000010000F06FFF03B05DF804FB0038024023
:103DC00030B589B00546002401941E4B5A6C42F070
:103DD00001025A645B6C03F001030193019B02A989
:103DE00003A801F037FE01F025FE43001648A0FBB2
:103DF00003239B0C013B1548154A026040F2E73251
:103E0000C260436004618460846102F06FF804461C
:103E100010B1204609B030BD0C4801F0FDFE04464B
:103E20000028F6D1192000F06DFF0F2D01D90124D3
:103E3000EFE700222946192000F02CFF054B1D60FA
:103E4000E7E700BF0038024083DE1B43D4000020B8
:103E50000000014070000020FEE7FEE7FEE7FEE7FD
:103E6000FEE7704708B5024800F0DCFD08BD00BF62
:103E7000A000002008B5024801F017FF08BD00BFF0
:103E8000D400002008B5024802F0C2FC08BD00BF03
:103E90002802002008B54FF4805001F06BFA4FF46F
:103EA000005001F067FA4FF4804001F063FA4FF4DC
:103EB000004001F05FFA08BD08B5024801F05EF865
:103EC00008BD00BF6801002008B5024801F056F89F
:103ED00008BD00BFC801002008B5024802F098FCE8
:103EE00008BD00BF6C02002008B5024802F090FC3B
:103EF00008BD00BFF402002010B503460C4A0D496E
:103F00000D48006840B10C4800680344521A9342BF
:103F100006D8094A136010BD0748084C0460F2E750
:103F2000FEF73EFE0C2303604FF0FF30F3E700BFC7
:103F300000000320000400001C010020B0580020F5
:103F4000034AD2F8883043F47003C2F888307047CF
:103F500000ED00E00368B3F1804F00D0704782B0FD
:103F600000230193054B1A6C42F001021A641B6C8A
:103F700003F001030193019B02B070470038024037
:103F800070B588B0002303930493059306930793B9
:103F90000368B3F1804F01D008B070BD00240194D4
:103FA00003F50E331A6B42F002021A631A6B02F029
:103FB00002020192019A02941A6B42F001021A6302
:103FC0001B6B03F001030293029B08230393022659
:103FD00004960125079503A9074801F0BDF848F2AA
:103FE0000C030393049605940694079503A90348CC
:103FF00001F0B2F8D0E700BF000402400000024028
:1040000000B58FB000230A930B930C930D93089384
:1040100009930193029303930493059306930793E3
:1040200031484FF08042026040F23F62426083605C
:1040300040F2E732C2600361836101F057FF00285C
:1040400039D14FF480530A930AA9274802F059F84E
:10405000002833D1244801F075FF002831D1002316
:104060000893099308A9204802F0CAF860BB6023AE
:104070000193002202920392059201A91A4801F0CD
:10408000C5FF20BB04220DEB0201174801F0BEFF63
:1040900000BB082201A9144801F0B8FFE8B90C22BE
:1040A00001A9114801F0B2FFD0B90F48FFF768FF2E
:1040B0000FB05DF804FBFFF7E1FDC2E7FFF7DEFD9F
:1040C000C8E7FFF7DBFDCAE7FFF7D8FDCFE7FFF74B
:1040D000D5FDD7E7FFF7D2FDDBE7FFF7CFFDDEE742
:1040E000FFF7CCFDE1E700BF2001002008B50A483A
:1040F0000A4B03604FF4E133436000238360C360E5
:1041000003610C2242618361C36102F0EBF900B9E3
:1041100008BDFFF7B3FDFBE7B002002000780040C8
:1041200008B50A480A4B03604FF4E13343600023AB
:104130008360C36003610C2242618361C36102F04A
:10414000D1F900B908BDFFF799FDFBE7F4020020A3
:10415000007C004008B50A480A4B03604FF4E13385
:10416000436000238360C36003610C22426183616A
:10417000C36102F0B7F900B908BDFFF77FFDFBE7A7
:10418000280200200048004008B50A480A4B036096
:104190000A4B436000238360C36003610C224261C9
:1041A0008361C36102F09EF900B908BDFFF766FDA7
:1041B000FBE700BF6C0200200014014000093D0035
:1041C00030B58FB0002309930A930B930C930D9392
:1041D0000368774A93420BD00446764A93422AD02A
:1041E000754A934251D0754A93427AD00FB030BD90
:1041F00000210191724B1A6C42F080421A641A6CD1
:1042000002F080420192019A02911A6B42F0200260
:104210001A631B6B03F020030293029BC0230993D4
:1042200002230A9303230C9308230D9309A96548DD
:1042300000F092FFDAE700240394614B1A6C42F01D
:1042400000421A641A6C02F000420392039A04942A
:104250001A6B42F010021A631B6B03F010030493F5
:10426000049B0323099302220A920C9308230D93C3
:1042700009A9554800F070FF22460521532000F09F
:1042800009FD532000F03EFDB0E7002405944C4B9F
:104290001A6C42F480221A641A6C02F4802205928D
:1042A000059A06941A6B42F008021A631B6B03F01E
:1042B00008030693069B4FF44073099302230A9365
:1042C00003230C9307230D9309A9404800F044FFF2
:1042D00022460521272000F0DDFC272000F012FDFA
:1042E00084E700250795364B5A6C42F020025A6449
:1042F0005A6C02F020020792079A08951A6B42F056
:1043000040021A631B6B03F040030893089B4FF4B1
:104310008443099302230A9303230C9308230D93E8
:1043200009A92B4800F018FF2A482B4B03604FF0D7
:10433000206343608560C5604FF48063036145611D
:1043400085614FF48073C3614FF44033036245626B
:1043500000F050FD28BB1F4BA3639C631F48204BFC
:1043600003604FF020634360402383600023C360F9
:104370004FF48062026143618361C3614FF4403254
:104380000262436200F036FD70B9144B63639C63B4
:1043900000220521472000F07DFC472000F0B2FC00
:1043A00024E7FFF76BFCD6E7FFF768FCEDE700BFFB
:1043B00000780040007C00400048004000140140AC
:1043C000003802400014024000100240000C02407D
:1043D000001802406801002028640240C801002043
:1043E000A0640240DFF834D00D480E490E4A002385
:1043F00002E0D458C4500433C4188C42F9D30B4A99
:104400000B4C002301E013600432A242FBD3FFF700
:1044100097FDFEF72BFDFFF78DFC70470000032092
:104420000000002078000020FCB90008780000207F
:10443000AC580020FEE7000008B50B4B1A6842F4A8
:1044400000721A601A6842F480621A601A6842F4B4
:1044500080721A60032000F00BFC0F20FFF7B0FC05
:10446000FFF78CFC002008BD003C0240034A1168A5
:10447000034B1B780B441360704700BF38030020C8
:104480006C000020014B1868704700BF3803002003
:10449000002800F0A18038B5044690F82030D3B150
:1044A0002268136843F001031360FFF7EBFF054632
:1044B00023685A6812F0010F10D1FFF7E3FF401B89
:1044C0000A28F5D9636A43F400336362052384F84C
:1044D0002030012038BDFFF79BFAE1E71A6822F08F
:1044E00002021A60FFF7CEFF054623685A6812F0F1
:1044F000020F0DD0FFF7C6FF401B0A28F5D9636AEB
:1045000043F400336362052384F820300120E1E79F
:10451000227E012A3DD01A6822F080021A60637E52
:10452000012B3BD02268136823F040031360A37E65
:10453000012B39D02268136823F020031360E37E37
:10454000012B37D02268136843F010031360237FD8
:10455000012B35D02268136823F008031360637FB2
:10456000012B33D02268136823F004031360A3687F
:10457000E268134322691343626913436268013A94
:1045800021681343CB6100206062012384F820304E
:10459000A0E71A6842F080021A60C0E72268136838
:1045A00043F040031360C2E72268136843F020031E
:1045B0001360C4E72268136823F010031360C6E792
:1045C0002268136843F008031360C8E72268136881
:1045D00043F004031360CAE70120704790F82030CD
:1045E000013BDBB2012B05D9436A43F480234362CC
:1045F0000120704730B5464BD3F8002242F001024B
:10460000C3F80022D3F8002222F47C52C3F800221F
:10461000D3F80022486A42EA0022C3F800224A691D
:1046200002F01F02012000FA02F2D3F81C026FEA26
:10463000020C20EA0200C3F81C02CB69C3B9344B58
:10464000D3F80C020CEA0000C3F80C028C8848690D
:10465000CD6844EA0544483043F830408C68088807
:1046600040EA04404C6904F1480E03EBCE03586065
:10467000CB69012B1ED08B69002B33D12448D0F895
:1046800004320CEA0303C0F804320B698BBB2048E8
:10469000D0F814320CEA0303C0F814320B6A012B71
:1046A0002ED01B4AD2F8003223F00103C2F80032A8
:1046B000002030BD164BD3F80C021043C3F80C0297
:1046C0008C8848690D6844EA0544483043F8304016
:1046D00088894C698D6840EA0540483403EBC4037F
:1046E0005860C8E70A48D0F804321343C0F80432CF
:1046F000CBE70748D0F814321343C0F81432CDE7A3
:104700000349D1F81C321A43C1F81C22C9E700BF83
:104710000064004070B5044690F82050EDB2012DC1
:1047200006D0436A43F4002343620125284670BD46
:10473000022380F820300268136823F0010313601D
:10474000FFF7A0FE064623685B6813F0010F0CD04C
:10475000FFF798FE831B0A2BF5D9636A43F40033F5
:104760006362052384F82030E0E700256562DDE719
:1047700030B590F820C00468A4680CF1FF3C5FFAE3
:104780008CFCBCF1010F6BD814F0E05F62D0C4F375
:10479000016CBCF1020F05D9436A43F40003436284
:1047A000012062E0012404FA0CF41C608B68002BE9
:1047B0003DD10D68CB68046843EA45550CF11803F8
:1047C0001B01E55003680C690CF1180E03EB0E1386
:1047D0005C600B7D012B35D0D17993791B0443EAC2
:1047E0000163517943EA012314790168234301EB02
:1047F0000C11C1F88C31D17893781B0443EA016322
:10480000517843EA0123117802680B4302EB0C1242
:10481000C2F8883102680CF1180C4FEA0C1C52F8EF
:104820000C3043F0010342F80C3000201DE04C68CE
:1048300043EAC403CC6823430CF11804240105683F
:104840002B51BFE7036803EB0E13596841F48071E5
:104850005960C1E7436A43F400134362012004E056
:10486000436A43F480234362012030BD90F8203036
:10487000013BDBB2012B01D9002070470368986827
:1048800010F0806000D001209A6812F0006F00D014
:1048900001309B6813F0805FEFD00130704790F8D3
:1048A00020C00CF1FF3C5FFA8CFCBCF1010F00F260
:1048B000958030B451B90468E46814F0030F10D146
:1048C000436A43F400134362012077E004682469DB
:1048D00014F0030F05D1436A43F40013436201202F
:1048E0006CE001F11B04240105682C5904F0040458
:1048F0009460002C64D101F11B04240105682C593B
:10490000640D1460046801F11B0C4FEA0C1C54F890
:104910000C4004F00204D46004686444646804F049
:104920000F041461046864446468C4F30724946148
:10493000046864446468240C5461026802EB011248
:10494000D2F8B8211A70026802EB0112D2F8B8212D
:10495000C2F307225A70026802EB0112D2F8B821A2
:10496000C2F307429A70026802EB0112D2F8B82132
:10497000120EDA70026802EB0112D2F8BC211A7131
:10498000026802EB0112D2F8BC21C2F307225A716D
:10499000026802EB0112D2F8BC21C2F307429A71FD
:1049A000026802EB0112D2F8BC21120EDA7179B959
:1049B0000268D36843F02003D360002030BC704706
:1049C00001F11B04240105682C59E408546099E79F
:1049D0000268136943F020031361EEE7436A43F46E
:1049E000802343620120704790F82030013BDBB206
:1049F000012B05D9436A43F48023436201207047A9
:104A0000026853691943516100207047704770472D
:104A100070477047704770477047704770477047DE
:104A2000704770472DE9F84F054603685C69D3F875
:104A300004809F68D3F80CB0D3F810A0D3F8189076
:104A400014F001063BD017F0010616D001229A603F
:104A500017F0020F08D117F0040F0CD117F0080659
:104A600006D04FF4805608E0FFF7D0FF002604E0A0
:104A7000FFF7CFFF01E04FF4006617F4807F0DD001
:104A80002B684FF480729A6017F4007F40F08680A4
:104A900017F4806F00F0868046F4005617F4803FCC
:104AA0000DD02B684FF480329A6017F4003F40F02D
:104AB000838017F4802F00F0838046F4004614F0C2
:104AC000080F07D01BF0100F04D046F400762B68B7
:104AD0001022DA6014F0040F02D01BF0080F79D115
:104AE00014F0020F04D02B68DB6813F0030F78D1A9
:104AF00014F0400F07D01AF0100F04D046F480666F
:104B00002B6810221A6114F0200F02D01AF0080F3F
:104B10006BD114F0100F04D02B681B6913F0030F36
:104B20006AD114F4003F02D018F0100F68D114F4C9
:104B3000803F02D018F0080F69D114F4004F7AD0EA
:104B400018F0040F74D014F4807F04D019F0010F12
:104B500001D046F0010614F4007F04D019F0020FD2
:104B600001D046F0020614F4806F04D019F0040F4F
:104B700001D046F0040614F4006F59D019F0700902
:104B800056D0B9F1400F65D058D8B9F1200F5ED09A
:104B9000B9F1300F42D146F0200644E02846FFF735
:104BA00036FF7BE717F4006F02D046F4804675E7C6
:104BB0002846FFF72FFF71E72846FFF729FF7EE71A
:104BC00017F4002F02D046F4803678E72846FFF726
:104BD00022FF74E72B680822DA602846FFF71CFFE3
:104BE0007EE7284606F0DAFA82E72B6808221A6187
:104BF0002846FFF713FF8CE72846FFF70EFF90E7E4
:104C00002B6810225A602846FFF709FF8FE72B68B0
:104C100008225A602846FFF703FF8EE7B9F1100F0C
:104C200001D146F008062A68936923F07003936166
:104C30002B6804225A609EB9BDE8F88FB9F1500F75
:104C40000BD0B9F1600FEED146F48076EBE746F079
:104C50001006E8E746F04006E5E746F08006E2E7A2
:104C60006B6A1E436E622846FFF7DBFEE4E7000036
:104C7000074AD36823F4E0631B041B0C000200F412
:104C8000E060034343F0BF6343F40033D3607047F5
:104C900000ED00E000B5194BDB68C3F30223C3F15C
:104CA000070CBCF1040F28BF4FF0040C03F1040EF5
:104CB000BEF1060F18D9033B4FF0FF3E0EFA0CFC75
:104CC00021EA0C0199400EFA03F322EA0303194387
:104CD00000280BDB0901C9B200F1604000F561401A
:104CE00080F800135DF804FB0023E5E700F00F00F7
:104CF0000901C9B2024B1954F4E700BF00ED00E00E
:104D000014ED00E0002807DB00F01F02400901233A
:104D10009340024A42F82030704700BF00E100E0B3
:104D200010B40368D9B210390C4AA2FB014212092F
:104D30000B4CA25CC2655F2909D923F47F7323F071
:104D4000030304338365806D5DF8044B704723F4DF
:104D50007F7323F003038365F5E700BFABAAAAAA1C
:104D6000F0B70008836A826992B9012B0AD0022B3E
:104D700002D00BB100207047C36A13F0807F28D1A6
:104D800000207047C36AB3F1C07F24D00020704771
:104D9000B2F5005F09D0022B25D9032B25D1C36AB8
:104DA00013F0807F23D100207047032B03D8DFE866
:104DB00003F01404140A00207047C36A13F0807FC4
:104DC0000DD100207047C36AB3F1C07F09D0002025
:104DD0007047012070470120704701207047012073
:104DE0007047012070470120704700207047012064
:104DF0007047000070B50446FFF744FB002C5BD001
:104E00000546022384F83530002384F834302268C4
:104E1000136823F00103136023681A6812F0010F6E
:104E20000AD0FFF72FFB431B052BF5D92023636521
:104E3000032084F8350070BD1A682048104061686E
:104E4000A2680A43E1680A4321690A4361690A4387
:104E5000A1690A43E1690A43216A0A430243616A7C
:104E600004291ED01A602668756925F00705636A53
:104E70001D43042B07D1A36A1D43E36A1BB12046DF
:104E8000FFF770FF90B975612046FFF749FFE26DAB
:104E90003F239340836000206065012384F8353010
:104EA000C9E7E16A206B01430A43DBE740236365FE
:104EB000012084F83500BEE70120BCE73F8010F0F8
:104EC00070B50446866DFFF7DDFA94F83530DBB235
:104ED000022B06D080236365002384F83430012040
:104EE00070BD05462268136823F01603136022681C
:104EF000536923F080035361236CE3B12268136884
:104F000023F0080313602268136823F00103136081
:104F100023681B6813F0010F11D0FFF7B3FA431B8E
:104F2000052BF5D920236365032084F83500002381
:104F300084F83430D4E7A36C002BDFD1E3E7E26DD3
:104F40003F239340B360012384F83530002084F878
:104F50003400C5E790F83530DBB2022B03D0802354
:104F6000436501207047052380F8353002681368D7
:104F700023F001031360002070470000F0B583B0F8
:104F8000044600230193724B1D68724BA3FB053549
:104F9000AD0A876D3E68C26D08239340334210D03E
:104FA00003681A6812F0040F0BD01A6822F004028A
:104FB0001A60C26D08239340BB60436D43F0010348
:104FC0004365E26D01239340334209D02268526960
:104FD00012F0800F04D0BB60636D43F00203636581
:104FE000E26D04239340334209D02268126812F024
:104FF000020F04D0BB60636D43F004036365E26D90
:1050000010239340334224D02268126812F0080F14
:105010001FD0BB6023681A6812F4802F0DD01B6864
:1050200013F4002F04D1236C9BB12046984710E065
:10503000A36C73B1204698470BE01A6812F4807F86
:1050400003D11A6822F008021A60236C0BB12046C3
:105050009847E26D20239340334255D0226812686E
:1050600012F0100F50D0BB6094F83530DBB2052B36
:105070000ED023681A6812F4802F33D01B6813F403
:10508000002F2AD1636C002B3ED0204698473BE08E
:105090002268136823F0160313602268536923F013
:1050A00080035361236CA3B12268136823F00803C3
:1050B0001360E26D3F239340BB60012384F83530D9
:1050C000002384F83430236D002B3FD020469847CE
:1050D0003CE0A36C002BE7D1EBE7E36BA3B12046E8
:1050E000984711E01A6812F4807F09D11A6822F0FB
:1050F00010021A60012384F83530002384F834301C
:10510000E36B0BB120469847636DFBB1636D13F001
:10511000010F17D0052384F835302268136823F077
:1051200001031360019B01330193AB4204D8236850
:105130001B6813F0010FF5D1012384F835300023EB
:1051400084F83430E36C0BB12046984703B0F0BDCF
:1051500068000020B5814E1B00230F2B00F2F18068
:1051600070B582B061E085685E000324B44025EA32
:105170000405CC68B4402C438460456825EA0205E8
:105180004C68C4F300129A402A4342605BE0DC089A
:10519000083450F8246003F0070295000F22AA405B
:1051A00026EA020E0A69AA4042EA0E0240F82420CA
:1051B0005DE0092200E0002202FA0EF22A430234E6
:1051C000604D45F82420604A94686FEA0C0224EA96
:1051D0000C054E6816F4801F01D04CEA04055A4CA9
:1051E000A560E46802EA04054E6816F4001F01D0C9
:1051F0004CEA0405544CE560646802EA04054E6814
:1052000016F4003F01D04CEA04054F4C6560246859
:1052100022404D6815F4803F01D04CEA04024A4C0C
:10522000226001330F2B00F28A8001229A400C6821
:1052300004EA020C32EA0404F3D14C6804F00304DB
:10524000013C012C8FD94A6802F00302032A09D0DD
:10525000C4685D000322AA4024EA02048A68AA40C6
:105260002243C2604A6802F00302022A8FD0046817
:105270004FEA430E032202FA0EF224EA02044A68BD
:1052800002F0030202FA0EF2224302604A6812F4AC
:10529000403FC6D0002201922C4A546C44F4804412
:1052A0005464526C02F480420192019A9C08A51C3D
:1052B000244A52F8255003F003024FEA820E0F22CF
:1052C00002FA0EF225EA0205214A90423FF473AF3A
:1052D00002F58062904222D002F58062904220D096
:1052E00002F5806290421ED002F5806290421CD08E
:1052F00002F5806290421AD002F58062904218D086
:1053000002F58062904216D002F58062904214D07D
:1053100002F5806290423FF44CAF0A224CE7012232
:105320004AE7022248E7032246E7042244E705222F
:1053300042E7062240E707223EE708223CE702B0A8
:1053400070BD704700380140003C01400038024009
:10535000000002400AB18161704709048161704711
:10536000436901EA030221EA030141EA0241816142
:105370007047000008B5054B5B69034200D108BDCA
:10538000024B586103F0A0FEF9E700BF003C01406A
:1053900010B582B000230193194B1A6C42F0805271
:1053A0001A641B6C03F080530193019B154B01227F
:1053B0001A64FFF767F80446134B5B6813F4803FE9
:1053C00008D1FFF75FF8001BB0F57A7FF4D903200E
:1053D00002B010BD0B4B01225A64FFF753F804468C
:1053E000094B5B6813F4003F07D1FFF74BF8001B34
:1053F000B0F57A7FF4D90320EAE70020E8E700BFA0
:105400000038024000000E4200700040002800F00A
:10541000E08170B582B00446036813F0010F3BD001
:105420009F4B9B6803F00C03042B2CD09C4B9B6878
:1054300003F00C03082B21D06368B3F5803F4FD0F5
:10544000B3F5A02F52D0964B1A6822F480321A601E
:105450001A6822F480221A606368002B50D0FFF78C
:1054600011F805468E4B1B6813F4003F14D1FFF76B
:1054700009F8401B6428F5D90320B1E1884B5B682B
:1054800013F4800FD8D0864B1B6813F4003F03D071
:105490006368002B00F09F81236813F0020F54D043
:1054A0007F4B9B6813F00C0F3ED07D4B9B6803F045
:1054B0000C03082B33D0E368002B68D0794B012212
:1054C0001A60FEF7DFFF0546754B1B6813F0020FED
:1054D00054D1FEF7D7FF401B0228F5D903207FE106
:1054E0006F4A136843F480331360B5E76C4B1A6856
:1054F00042F480221A601A6842F480321A60ABE7E4
:10550000FEF7C0FF0546664B1B6813F4003FC3D08F
:10551000FEF7B8FF401B6428F5D9032060E1604B1B
:105520005B6813F4800FC6D15D4B1B6813F0020F4C
:1055300003D0E368012B40F05081594A136823F0EF
:10554000F803216943EAC1031360236813F0080FCD
:1055500042D063696BB3534B0122C3F8802EFEF730
:1055600091FF05464E4B5B6F13F0020F34D1FEF7EF
:1055700089FF401B0228F5D9032031E1484A13680E
:1055800023F0F803216943EAC1031360DDE7454BCB
:1055900000221A60FEF776FF0546414B1B6813F0A8
:1055A000020FD2D0FEF76EFF401B0228F5D9032070
:1055B00016E13C4B0022C3F8802EFEF763FF054640
:1055C000374B5B6F13F0020F06D0FEF75BFF401BFB
:1055D0000228F5D9032003E1236813F0040F77D0E4
:1055E0002F4B1B6C13F0805F33D1002301932C4BA6
:1055F0001A6C42F080521A641B6C03F080530193C2
:10560000019B0125284B1B6813F4807F23D0A368DE
:10561000012B34D0052B38D0214B1A6F22F0010218
:105620001A671A6F22F004021A67A368002B3DD094
:10563000FEF728FF06461A4B1B6F13F0020F46D1E8
:10564000FEF720FF801B41F288339842F3D90320F4
:10565000C6E00025D6E7144A136843F4807313604C
:10566000FEF710FF0646104B1B6813F4807FCED167
:10567000FEF708FF801B0228F5D90320B0E0084A96
:10568000136F43F001031367CFE7054B1A6F42F026
:1056900004021A671A6F42F001021A67C5E700BFD9
:1056A000003802400000474200700040FEF7EAFE6A
:1056B0000646524B1B6F13F0020F08D0FEF7E2FEB6
:1056C000801B41F288339842F3D9032088E0EDB97A
:1056D000A369002B00F08380484A926802F00C0214
:1056E000082A51D0022B17D0454B00221A66FEF72C
:1056F000C9FE0446414B1B6813F0007F42D0FEF701
:10570000C1FE001B0228F5D9032069E03B4A136C57
:1057100023F080531364DBE7394B00221A66FEF74F
:10572000B1FE0546354B1B6813F0007F06D0FEF72F
:10573000A9FE401B0228F5D9032051E0E369226A43
:105740001343626A43EA8213A26A5208013A43EAA7
:105750000243E26A43EA0263284A5360284B01226B
:105760001A66FEF78FFE0446244B1B6813F0007F79
:1057700006D1FEF787FE001B0228F5D903202FE093
:1057800000202DE000202BE0012B2BD01B4B5B6871
:1057900003F48001E269914226D103F03F02216ABD
:1057A0008A4223D1616A47F6C0721A40B2EB811F68
:1057B0001ED103F44031A26A5208013AB1EB024F04
:1057C00018D103F07063E26AB3EB026F14D10020CA
:1057D00006E001207047012002E0012000E00020E7
:1057E00002B070BD0120FBE70120F9E70120F7E7D7
:1057F0000120F5E70120F3E70120F1E7003802403E
:105800000000474208B5254B9B6803F00C03042BAE
:105810003FD0082B3FD1214B5A6802F03F025B6812
:1058200013F4800F12D01D4B5968C1F388111C4826
:105830000023A1FB0001FDF731F8184B5B68C3F3AF
:10584000014301335B00B0FBF3F025E0134B5968D3
:10585000C1F3881C4FEA4C11B1EB0C006EEB0E0E3D
:105860004FEA8E1343EA90638101091A63EB0E033A
:10587000DB0043EA5173C90011EB0C0C43F1000348
:10588000990200234FEA8C2041EA9C51FDF706F86B
:10589000D3E7034800E0034808BD00BF00380240DA
:1058A000001BB7000024F400002800F09B8070B5B6
:1058B0000D4604464F4B1B6803F00F038B4208D282
:1058C000CBB24C4A1370136803F00F038B4240F0C5
:1058D0008B80236813F0020F17D013F0040F04D04D
:1058E000454A936843F4E0539360236813F0080F2C
:1058F00004D0414A936843F4604393603E4A9368FE
:1059000023F0F003A1680B439360236813F0010FA9
:1059100032D06368012B21D09A1E012A25D9364A3C
:10592000126812F0020F61D033498A6822F0030234
:1059300013438B60FEF7A6FD06462F4B9B6803F0D2
:105940000C036268B3EB820F16D0FEF79BFD801B41
:1059500041F288339842F0D9032042E0264A126887
:1059600012F4003FE0D101203BE0234A126812F01C
:10597000007FD9D1012034E01E4B1B6803F00F03D8
:10598000AB4207D9EAB21B4B1A701B6803F00F0336
:10599000AB422DD1236813F0040F06D0164A93684A
:1059A00023F4E053E1680B439360236813F0080F7E
:1059B00007D0114A936823F46043216943EAC10385
:1059C0009360FFF71FFF0C4B9B68C3F303130B4A55
:1059D000D35CD8400A4B18600A4B1868FEF7F0F900
:1059E000002070BD012070470120FAE70120F8E790
:1059F0000120F6E7003C024000380240D8B700081A
:105A00006800002070000020014B1868704700BF3C
:105A10006800002008B5FFF7F7FF044B9B68C3F34D
:105A20008223034AD35CD84008BD00BF003802403F
:105A3000E8B7000808B5FFF7E7FF044B9B68C3F31E
:105A40004233034AD35CD84008BD00BF003802404F
:105A5000E8B700080F2303600B4B9A6802F00302BB
:105A600042609A6802F0F00282609A6802F4E052A2
:105A7000C2609B68DB0803F4E0530361034B1B68BF
:105A800003F00F030B60704700380240003C0240F7
:105A900030B4036A23F001030362036A4268846935
:105AA00024F073040D682C4323F0020C8B6843EA46
:105AB0000C03104DA84203D005F58065A84205D11E
:105AC00023F00803CD682B4323F00403094DA842BB
:105AD00003D005F58065A84205D122F440724D69D6
